{
  "_format": "hh-sol-artifact-1",
  "contractName": "NFT",
  "sourceName": "contracts/NFT.sol",
  "abi": [
    {
      "inputs": [],
      "stateMutability": "nonpayable",
      "type": "constructor"
    },
    {
      "anonymous": false,
      "inputs": [
        {
          "indexed": true,
          "internalType": "address",
          "name": "owner",
          "type": "address"
        },
        {
          "indexed": true,
          "internalType": "address",
          "name": "approved",
          "type": "address"
        },
        {
          "indexed": true,
          "internalType": "uint256",
          "name": "tokenId",
          "type": "uint256"
        }
      ],
      "name": "Approval",
      "type": "event"
    },
    {
      "anonymous": false,
      "inputs": [
        {
          "indexed": true,
          "internalType": "address",
          "name": "owner",
          "type": "address"
        },
        {
          "indexed": true,
          "internalType": "address",
          "name": "operator",
          "type": "address"
        },
        {
          "indexed": false,
          "internalType": "bool",
          "name": "approved",
          "type": "bool"
        }
      ],
      "name": "ApprovalForAll",
      "type": "event"
    },
    {
      "anonymous": false,
      "inputs": [
        {
          "indexed": true,
          "internalType": "address",
          "name": "previousOwner",
          "type": "address"
        },
        {
          "indexed": true,
          "internalType": "address",
          "name": "newOwner",
          "type": "address"
        }
      ],
      "name": "OwnershipTransferred",
      "type": "event"
    },
    {
      "anonymous": false,
      "inputs": [
        {
          "indexed": true,
          "internalType": "address",
          "name": "from",
          "type": "address"
        },
        {
          "indexed": true,
          "internalType": "address",
          "name": "to",
          "type": "address"
        },
        {
          "indexed": true,
          "internalType": "uint256",
          "name": "tokenId",
          "type": "uint256"
        }
      ],
      "name": "Transfer",
      "type": "event"
    },
    {
      "inputs": [
        {
          "internalType": "address",
          "name": "to",
          "type": "address"
        },
        {
          "internalType": "uint256",
          "name": "tokenId",
          "type": "uint256"
        }
      ],
      "name": "approve",
      "outputs": [],
      "stateMutability": "nonpayable",
      "type": "function"
    },
    {
      "inputs": [
        {
          "internalType": "address",
          "name": "owner",
          "type": "address"
        }
      ],
      "name": "balanceOf",
      "outputs": [
        {
          "internalType": "uint256",
          "name": "",
          "type": "uint256"
        }
      ],
      "stateMutability": "view",
      "type": "function"
    },
    {
      "inputs": [
        {
          "internalType": "string",
          "name": "_newBaseURI",
          "type": "string"
        }
      ],
      "name": "changeBaseURI",
      "outputs": [],
      "stateMutability": "nonpayable",
      "type": "function"
    },
    {
      "inputs": [
        {
          "internalType": "uint256",
          "name": "tokenId",
          "type": "uint256"
        }
      ],
      "name": "getApproved",
      "outputs": [
        {
          "internalType": "address",
          "name": "",
          "type": "address"
        }
      ],
      "stateMutability": "view",
      "type": "function"
    },
    {
      "inputs": [
        {
          "internalType": "address",
          "name": "owner",
          "type": "address"
        },
        {
          "internalType": "address",
          "name": "operator",
          "type": "address"
        }
      ],
      "name": "isApprovedForAll",
      "outputs": [
        {
          "internalType": "bool",
          "name": "",
          "type": "bool"
        }
      ],
      "stateMutability": "view",
      "type": "function"
    },
    {
      "inputs": [],
      "name": "name",
      "outputs": [
        {
          "internalType": "string",
          "name": "",
          "type": "string"
        }
      ],
      "stateMutability": "view",
      "type": "function"
    },
    {
      "inputs": [],
      "name": "owner",
      "outputs": [
        {
          "internalType": "address",
          "name": "",
          "type": "address"
        }
      ],
      "stateMutability": "view",
      "type": "function"
    },
    {
      "inputs": [
        {
          "internalType": "uint256",
          "name": "tokenId",
          "type": "uint256"
        }
      ],
      "name": "ownerOf",
      "outputs": [
        {
          "internalType": "address",
          "name": "",
          "type": "address"
        }
      ],
      "stateMutability": "view",
      "type": "function"
    },
    {
      "inputs": [],
      "name": "renounceOwnership",
      "outputs": [],
      "stateMutability": "nonpayable",
      "type": "function"
    },
    {
      "inputs": [
        {
          "internalType": "address",
          "name": "_to",
          "type": "address"
        }
      ],
      "name": "safeMint",
      "outputs": [],
      "stateMutability": "payable",
      "type": "function"
    },
    {
      "inputs": [
        {
          "internalType": "address",
          "name": "from",
          "type": "address"
        },
        {
          "internalType": "address",
          "name": "to",
          "type": "address"
        },
        {
          "internalType": "uint256",
          "name": "tokenId",
          "type": "uint256"
        }
      ],
      "name": "safeTransferFrom",
      "outputs": [],
      "stateMutability": "nonpayable",
      "type": "function"
    },
    {
      "inputs": [
        {
          "internalType": "address",
          "name": "from",
          "type": "address"
        },
        {
          "internalType": "address",
          "name": "to",
          "type": "address"
        },
        {
          "internalType": "uint256",
          "name": "tokenId",
          "type": "uint256"
        },
        {
          "internalType": "bytes",
          "name": "data",
          "type": "bytes"
        }
      ],
      "name": "safeTransferFrom",
      "outputs": [],
      "stateMutability": "nonpayable",
      "type": "function"
    },
    {
      "inputs": [
        {
          "internalType": "address",
          "name": "operator",
          "type": "address"
        },
        {
          "internalType": "bool",
          "name": "approved",
          "type": "bool"
        }
      ],
      "name": "setApprovalForAll",
      "outputs": [],
      "stateMutability": "nonpayable",
      "type": "function"
    },
    {
      "inputs": [
        {
          "internalType": "bytes4",
          "name": "interfaceId",
          "type": "bytes4"
        }
      ],
      "name": "supportsInterface",
      "outputs": [
        {
          "internalType": "bool",
          "name": "",
          "type": "bool"
        }
      ],
      "stateMutability": "view",
      "type": "function"
    },
    {
      "inputs": [],
      "name": "symbol",
      "outputs": [
        {
          "internalType": "string",
          "name": "",
          "type": "string"
        }
      ],
      "stateMutability": "view",
      "type": "function"
    },
    {
      "inputs": [
        {
          "internalType": "uint256",
          "name": "index",
          "type": "uint256"
        }
      ],
      "name": "tokenByIndex",
      "outputs": [
        {
          "internalType": "uint256",
          "name": "",
          "type": "uint256"
        }
      ],
      "stateMutability": "view",
      "type": "function"
    },
    {
      "inputs": [
        {
          "internalType": "address",
          "name": "owner",
          "type": "address"
        },
        {
          "internalType": "uint256",
          "name": "index",
          "type": "uint256"
        }
      ],
      "name": "tokenOfOwnerByIndex",
      "outputs": [
        {
          "internalType": "uint256",
          "name": "",
          "type": "uint256"
        }
      ],
      "stateMutability": "view",
      "type": "function"
    },
    {
      "inputs": [
        {
          "internalType": "uint256",
          "name": "tokenId",
          "type": "uint256"
        }
      ],
      "name": "tokenURI",
      "outputs": [
        {
          "internalType": "string",
          "name": "",
          "type": "string"
        }
      ],
      "stateMutability": "view",
      "type": "function"
    },
    {
      "inputs": [],
      "name": "totalSupply",
      "outputs": [
        {
          "internalType": "uint256",
          "name": "",
          "type": "uint256"
        }
      ],
      "stateMutability": "view",
      "type": "function"
    },
    {
      "inputs": [
        {
          "internalType": "address",
          "name": "from",
          "type": "address"
        },
        {
          "internalType": "address",
          "name": "to",
          "type": "address"
        },
        {
          "internalType": "uint256",
          "name": "tokenId",
          "type": "uint256"
        }
      ],
      "name": "transferFrom",
      "outputs": [],
      "stateMutability": "nonpayable",
      "type": "function"
    },
    {
      "inputs": [
        {
          "internalType": "address",
          "name": "newOwner",
          "type": "address"
        }
      ],
      "name": "transferOwnership",
      "outputs": [],
      "stateMutability": "nonpayable",
      "type": "function"
    },
    {
      "inputs": [],
      "name": "withdraw",
      "outputs": [],
      "stateMutability": "nonpayable",
      "type": "function"
    }
  ],
  "bytecode": "0x60806040526005600b5566038d7ea4c68000600c5560405180606001604052806036815260200162003e5060369139600d90816200003e91906200044d565b503480156200004c57600080fd5b506040518060400160405280600681526020017f4d6f6e6b657900000000000000000000000000000000000000000000000000008152506040518060400160405280600681526020017f4d6f6e4e465400000000000000000000000000000000000000000000000000008152508160009081620000ca91906200044d565b508060019081620000dc91906200044d565b505050620000ff620000f36200010560201b60201c565b6200010d60201b60201c565b62000534565b600033905090565b6000600a60009054906101000a900473ffffffffffffffffffffffffffffffffffffffff16905081600a60006101000a81548173ffffffffffffffffffffffffffffffffffffffff021916908373ffffffffffffffffffffffffffffffffffffffff1602179055508173ffffffffffffffffffffffffffffffffffffffff168173ffffffffffffffffffffffffffffffffffffffff167f8be0079c531659141344cd1fd0a4f28419497f9722a3daafe3b4186f6b6457e060405160405180910390a35050565b600081519050919050565b7f4e487b7100000000000000000000000000000000000000000000000000000000600052604160045260246000fd5b7f4e487b7100000000000000000000000000000000000000000000000000000000600052602260045260246000fd5b600060028204905060018216806200025557607f821691505b6020821081036200026b576200026a6200020d565b5b50919050565b60008190508160005260206000209050919050565b60006020601f8301049050919050565b600082821b905092915050565b600060088302620002d57fffffffffffffffffffffffffffffffffffffffffffffffffffffffffffffffff8262000296565b620002e1868362000296565b95508019841693508086168417925050509392505050565b6000819050919050565b6000819050919050565b60006200032e620003286200032284620002f9565b62000303565b620002f9565b9050919050565b6000819050919050565b6200034a836200030d565b62000362620003598262000335565b848454620002a3565b825550505050565b600090565b620003796200036a565b620003868184846200033f565b505050565b5b81811015620003ae57620003a26000826200036f565b6001810190506200038c565b5050565b601f821115620003fd57620003c78162000271565b620003d28462000286565b81016020851015620003e2578190505b620003fa620003f18562000286565b8301826200038b565b50505b505050565b600082821c905092915050565b6000620004226000198460080262000402565b1980831691505092915050565b60006200043d83836200040f565b9150826002028217905092915050565b6200045882620001d3565b67ffffffffffffffff811115620004745762000473620001de565b5b6200048082546200023c565b6200048d828285620003b2565b600060209050601f831160018114620004c55760008415620004b0578287015190505b620004bc85826200042f565b8655506200052c565b601f198416620004d58662000271565b60005b82811015620004ff57848901518255600182019150602085019450602081019050620004d8565b868310156200051f57848901516200051b601f8916826200040f565b8355505b6001600288020188555050505b505050505050565b61390c80620005446000396000f3fe6080604052600436106101355760003560e01c80634f6ccce7116100ab57806395d89b411161006f57806395d89b4114610417578063a22cb46514610442578063b88d4fde1461046b578063c87b56dd14610494578063e985e9c5146104d1578063f2fde38b1461050e57610135565b80634f6ccce71461031e5780636352211e1461035b57806370a0823114610398578063715018a6146103d55780638da5cb5b146103ec57610135565b806323b872dd116100fd57806323b872dd146102335780632f745c591461025c57806339a0c6f9146102995780633ccfd60b146102c257806340d097c3146102d957806342842e0e146102f557610135565b806301ffc9a71461013a57806306fdde0314610177578063081812fc146101a2578063095ea7b3146101df57806318160ddd14610208575b600080fd5b34801561014657600080fd5b50610161600480360381019061015c9190612333565b610537565b60405161016e919061237b565b60405180910390f35b34801561018357600080fd5b5061018c6105b1565b6040516101999190612426565b60405180910390f35b3480156101ae57600080fd5b506101c960048036038101906101c4919061247e565b610643565b6040516101d691906124ec565b60405180910390f35b3480156101eb57600080fd5b5061020660048036038101906102019190612533565b610689565b005b34801561021457600080fd5b5061021d6107a0565b60405161022a9190612582565b60405180910390f35b34801561023f57600080fd5b5061025a6004803603810190610255919061259d565b6107ad565b005b34801561026857600080fd5b50610283600480360381019061027e9190612533565b61080d565b6040516102909190612582565b60405180910390f35b3480156102a557600080fd5b506102c060048036038101906102bb9190612725565b6108b2565b005b3480156102ce57600080fd5b506102d76108cd565b005b6102f360048036038101906102ee919061276e565b61094e565b005b34801561030157600080fd5b5061031c6004803603810190610317919061259d565b6109f0565b005b34801561032a57600080fd5b506103456004803603810190610340919061247e565b610a10565b6040516103529190612582565b60405180910390f35b34801561036757600080fd5b50610382600480360381019061037d919061247e565b610a81565b60405161038f91906124ec565b60405180910390f35b3480156103a457600080fd5b506103bf60048036038101906103ba919061276e565b610b07565b6040516103cc9190612582565b60405180910390f35b3480156103e157600080fd5b506103ea610bbe565b005b3480156103f857600080fd5b50610401610bd2565b60405161040e91906124ec565b60405180910390f35b34801561042357600080fd5b5061042c610bfc565b6040516104399190612426565b60405180910390f35b34801561044e57600080fd5b50610469600480360381019061046491906127c7565b610c8e565b005b34801561047757600080fd5b50610492600480360381019061048d91906128a8565b610ca4565b005b3480156104a057600080fd5b506104bb60048036038101906104b6919061247e565b610d06565b6040516104c89190612426565b60405180910390f35b3480156104dd57600080fd5b506104f860048036038101906104f3919061292b565b610d6f565b604051610505919061237b565b60405180910390f35b34801561051a57600080fd5b506105356004803603810190610530919061276e565b610e03565b005b60007f780e9d63000000000000000000000000000000000000000000000000000000007bffffffffffffffffffffffffffffffffffffffffffffffffffffffff1916827bffffffffffffffffffffffffffffffffffffffffffffffffffffffff191614806105aa57506105a982610e86565b5b9050919050565b6060600080546105c09061299a565b80601f01602080910402602001604051908101604052809291908181526020018280546105ec9061299a565b80156106395780601f1061060e57610100808354040283529160200191610639565b820191906000526020600020905b81548152906001019060200180831161061c57829003601f168201915b5050505050905090565b600061064e82610f68565b6004600083815260200190815260200160002060009054906101000a900473ffffffffffffffffffffffffffffffffffffffff169050919050565b600061069482610a81565b90508073ffffffffffffffffffffffffffffffffffffffff168373ffffffffffffffffffffffffffffffffffffffff1603610704576040517f08c379a00000000000000000000000000000000000000000000000000000000081526004016106fb90612a3d565b60405180910390fd5b8073ffffffffffffffffffffffffffffffffffffffff16610723610fb3565b73ffffffffffffffffffffffffffffffffffffffff16148061075257506107518161074c610fb3565b610d6f565b5b610791576040517f08c379a000000000000000000000000000000000000000000000000000000000815260040161078890612acf565b60405180910390fd5b61079b8383610fbb565b505050565b6000600880549050905090565b6107be6107b8610fb3565b82611074565b6107fd576040517f08c379a00000000000000000000000000000000000000000000000000000000081526004016107f490612b61565b60405180910390fd5b610808838383611109565b505050565b600061081883610b07565b8210610859576040517f08c379a000000000000000000000000000000000000000000000000000000000815260040161085090612bf3565b60405180910390fd5b600660008473ffffffffffffffffffffffffffffffffffffffff1673ffffffffffffffffffffffffffffffffffffffff168152602001908152602001600020600083815260200190815260200160002054905092915050565b6108ba611402565b80600d90816108c99190612dbf565b5050565b6108d5611402565b60003373ffffffffffffffffffffffffffffffffffffffff16476040516108fb90612ec2565b60006040518083038185875af1925050503d8060008114610938576040519150601f19603f3d011682016040523d82523d6000602084013e61093d565b606091505b505090508061094b57600080fd5b50565b60006109586107a0565b9050600b54811061099e576040517f08c379a000000000000000000000000000000000000000000000000000000000815260040161099590612f23565b60405180910390fd5b600c5434146109e2576040517f08c379a00000000000000000000000000000000000000000000000000000000081526004016109d990612f8f565b60405180910390fd5b6109ec8282611480565b5050565b610a0b83838360405180602001604052806000815250610ca4565b505050565b6000610a1a6107a0565b8210610a5b576040517f08c379a0000000000000000000000000000000000000000000000000000000008152600401610a5290613021565b60405180910390fd5b60088281548110610a6f57610a6e613041565b5b90600052602060002001549050919050565b600080610a8d8361149e565b9050600073ffffffffffffffffffffffffffffffffffffffff168173ffffffffffffffffffffffffffffffffffffffff1603610afe576040517f08c379a0000000000000000000000000000000000000000000000000000000008152600401610af5906130bc565b60405180910390fd5b80915050919050565b60008073ffffffffffffffffffffffffffffffffffffffff168273ffffffffffffffffffffffffffffffffffffffff1603610b77576040517f08c379a0000000000000000000000000000000000000000000000000000000008152600401610b6e9061314e565b60405180910390fd5b600360008373ffffffffffffffffffffffffffffffffffffffff1673ffffffffffffffffffffffffffffffffffffffff168152602001908152602001600020549050919050565b610bc6611402565b610bd060006114db565b565b6000600a60009054906101000a900473ffffffffffffffffffffffffffffffffffffffff16905090565b606060018054610c0b9061299a565b80601f0160208091040260200160405190810160405280929190818152602001828054610c379061299a565b8015610c845780601f10610c5957610100808354040283529160200191610c84565b820191906000526020600020905b815481529060010190602001808311610c6757829003601f168201915b5050505050905090565b610ca0610c99610fb3565b83836115a1565b5050565b610cb5610caf610fb3565b83611074565b610cf4576040517f08c379a0000000000000000000000000000000000000000000000000000000008152600401610ceb90612b61565b60405180910390fd5b610d008484848461170d565b50505050565b6060610d1182610f68565b6000600d8054610d209061299a565b905011610d3c5760405180602001604052806000815250610d68565b600d610d4783611769565b604051602001610d58929190613279565b6040516020818303038152906040525b9050919050565b6000600560008473ffffffffffffffffffffffffffffffffffffffff1673ffffffffffffffffffffffffffffffffffffffff16815260200190815260200160002060008373ffffffffffffffffffffffffffffffffffffffff1673ffffffffffffffffffffffffffffffffffffffff16815260200190815260200160002060009054906101000a900460ff16905092915050565b610e0b611402565b600073ffffffffffffffffffffffffffffffffffffffff168173ffffffffffffffffffffffffffffffffffffffff1603610e7a576040517f08c379a0000000000000000000000000000000000000000000000000000000008152600401610e719061331a565b60405180910390fd5b610e83816114db565b50565b60007f80ac58cd000000000000000000000000000000000000000000000000000000007bffffffffffffffffffffffffffffffffffffffffffffffffffffffff1916827bffffffffffffffffffffffffffffffffffffffffffffffffffffffff19161480610f5157507f5b5e139f000000000000000000000000000000000000000000000000000000007bffffffffffffffffffffffffffffffffffffffffffffffffffffffff1916827bffffffffffffffffffffffffffffffffffffffffffffffffffffffff1916145b80610f615750610f6082611837565b5b9050919050565b610f71816118a1565b610fb0576040517f08c379a0000000000000000000000000000000000000000000000000000000008152600401610fa7906130bc565b60405180910390fd5b50565b600033905090565b816004600083815260200190815260200160002060006101000a81548173ffffffffffffffffffffffffffffffffffffffff021916908373ffffffffffffffffffffffffffffffffffffffff160217905550808273ffffffffffffffffffffffffffffffffffffffff1661102e83610a81565b73ffffffffffffffffffffffffffffffffffffffff167f8c5be1e5ebec7d5bd14f71427d1e84f3dd0314c0f7b2291e5b200ac8c7c3b92560405160405180910390a45050565b60008061108083610a81565b90508073ffffffffffffffffffffffffffffffffffffffff168473ffffffffffffffffffffffffffffffffffffffff1614806110c257506110c18185610d6f565b5b8061110057508373ffffffffffffffffffffffffffffffffffffffff166110e884610643565b73ffffffffffffffffffffffffffffffffffffffff16145b91505092915050565b8273ffffffffffffffffffffffffffffffffffffffff1661112982610a81565b73ffffffffffffffffffffffffffffffffffffffff161461117f576040517f08c379a0000000000000000000000000000000000000000000000000000000008152600401611176906133ac565b60405180910390fd5b600073ffffffffffffffffffffffffffffffffffffffff168273ffffffffffffffffffffffffffffffffffffffff16036111ee576040517f08c379a00000000000000000000000000000000000000000000000000000000081526004016111e59061343e565b60405180910390fd5b6111fb83838360016118e2565b8273ffffffffffffffffffffffffffffffffffffffff1661121b82610a81565b73ffffffffffffffffffffffffffffffffffffffff1614611271576040517f08c379a0000000000000000000000000000000000000000000000000000000008152600401611268906133ac565b60405180910390fd5b6004600082815260200190815260200160002060006101000a81549073ffffffffffffffffffffffffffffffffffffffff02191690556001600360008573ffffffffffffffffffffffffffffffffffffffff1673ffffffffffffffffffffffffffffffffffffffff168152602001908152602001600020600082825403925050819055506001600360008473ffffffffffffffffffffffffffffffffffffffff1673ffffffffffffffffffffffffffffffffffffffff16815260200190815260200160002060008282540192505081905550816002600083815260200190815260200160002060006101000a81548173ffffffffffffffffffffffffffffffffffffffff021916908373ffffffffffffffffffffffffffffffffffffffff160217905550808273ffffffffffffffffffffffffffffffffffffffff168473ffffffffffffffffffffffffffffffffffffffff167fddf252ad1be2c89b69c2b068fc378daa952ba7f163c4a11628f55a4df523b3ef60405160405180910390a46113fd8383836001611a40565b505050565b61140a610fb3565b73ffffffffffffffffffffffffffffffffffffffff16611428610bd2565b73ffffffffffffffffffffffffffffffffffffffff161461147e576040517f08c379a0000000000000000000000000000000000000000000000000000000008152600401611475906134aa565b60405180910390fd5b565b61149a828260405180602001604052806000815250611a46565b5050565b60006002600083815260200190815260200160002060009054906101000a900473ffffffffffffffffffffffffffffffffffffffff169050919050565b6000600a60009054906101000a900473ffffffffffffffffffffffffffffffffffffffff16905081600a60006101000a81548173ffffffffffffffffffffffffffffffffffffffff021916908373ffffffffffffffffffffffffffffffffffffffff1602179055508173ffffffffffffffffffffffffffffffffffffffff168173ffffffffffffffffffffffffffffffffffffffff167f8be0079c531659141344cd1fd0a4f28419497f9722a3daafe3b4186f6b6457e060405160405180910390a35050565b8173ffffffffffffffffffffffffffffffffffffffff168373ffffffffffffffffffffffffffffffffffffffff160361160f576040517f08c379a000000000000000000000000000000000000000000000000000000000815260040161160690613516565b60405180910390fd5b80600560008573ffffffffffffffffffffffffffffffffffffffff1673ffffffffffffffffffffffffffffffffffffffff16815260200190815260200160002060008473ffffffffffffffffffffffffffffffffffffffff1673ffffffffffffffffffffffffffffffffffffffff16815260200190815260200160002060006101000a81548160ff0219169083151502179055508173ffffffffffffffffffffffffffffffffffffffff168373ffffffffffffffffffffffffffffffffffffffff167f17307eab39ab6107e8899845ad3d59bd9653f200f220920489ca2b5937696c3183604051611700919061237b565b60405180910390a3505050565b611718848484611109565b61172484848484611aa1565b611763576040517f08c379a000000000000000000000000000000000000000000000000000000000815260040161175a906135a8565b60405180910390fd5b50505050565b60606000600161177884611c28565b01905060008167ffffffffffffffff811115611797576117966125fa565b5b6040519080825280601f01601f1916602001820160405280156117c95781602001600182028036833780820191505090505b509050600082602001820190505b60011561182c578080600190039150507f3031323334353637383961626364656600000000000000000000000000000000600a86061a8153600a85816118205761181f6135c8565b5b049450600085036117d7575b819350505050919050565b60007f01ffc9a7000000000000000000000000000000000000000000000000000000007bffffffffffffffffffffffffffffffffffffffffffffffffffffffff1916827bffffffffffffffffffffffffffffffffffffffffffffffffffffffff1916149050919050565b60008073ffffffffffffffffffffffffffffffffffffffff166118c38361149e565b73ffffffffffffffffffffffffffffffffffffffff1614159050919050565b6118ee84848484611d7b565b6001811115611932576040517f08c379a000000000000000000000000000000000000000000000000000000000815260040161192990613669565b60405180910390fd5b6000829050600073ffffffffffffffffffffffffffffffffffffffff168573ffffffffffffffffffffffffffffffffffffffff16036119795761197481611d81565b6119b8565b8373ffffffffffffffffffffffffffffffffffffffff168573ffffffffffffffffffffffffffffffffffffffff16146119b7576119b68582611dca565b5b5b600073ffffffffffffffffffffffffffffffffffffffff168473ffffffffffffffffffffffffffffffffffffffff16036119fa576119f581611f37565b611a39565b8473ffffffffffffffffffffffffffffffffffffffff168473ffffffffffffffffffffffffffffffffffffffff1614611a3857611a378482612008565b5b5b5050505050565b50505050565b611a508383612087565b611a5d6000848484611aa1565b611a9c576040517f08c379a0000000000000000000000000000000000000000000000000000000008152600401611a93906135a8565b60405180910390fd5b505050565b6000611ac28473ffffffffffffffffffffffffffffffffffffffff166122a4565b15611c1b578373ffffffffffffffffffffffffffffffffffffffff1663150b7a02611aeb610fb3565b8786866040518563ffffffff1660e01b8152600401611b0d94939291906136de565b6020604051808303816000875af1925050508015611b4957506040513d601f19601f82011682018060405250810190611b46919061373f565b60015b611bcb573d8060008114611b79576040519150601f19603f3d011682016040523d82523d6000602084013e611b7e565b606091505b506000815103611bc3576040517f08c379a0000000000000000000000000000000000000000000000000000000008152600401611bba906135a8565b60405180910390fd5b805181602001fd5b63150b7a0260e01b7bffffffffffffffffffffffffffffffffffffffffffffffffffffffff1916817bffffffffffffffffffffffffffffffffffffffffffffffffffffffff191614915050611c20565b600190505b949350505050565b600080600090507a184f03e93ff9f4daa797ed6e38ed64bf6a1f0100000000000000008310611c86577a184f03e93ff9f4daa797ed6e38ed64bf6a1f0100000000000000008381611c7c57611c7b6135c8565b5b0492506040810190505b6d04ee2d6d415b85acef81000000008310611cc3576d04ee2d6d415b85acef81000000008381611cb957611cb86135c8565b5b0492506020810190505b662386f26fc100008310611cf257662386f26fc100008381611ce857611ce76135c8565b5b0492506010810190505b6305f5e1008310611d1b576305f5e1008381611d1157611d106135c8565b5b0492506008810190505b6127108310611d40576127108381611d3657611d356135c8565b5b0492506004810190505b60648310611d635760648381611d5957611d586135c8565b5b0492506002810190505b600a8310611d72576001810190505b80915050919050565b50505050565b6008805490506009600083815260200190815260200160002081905550600881908060018154018082558091505060019003906000526020600020016000909190919091505550565b60006001611dd784610b07565b611de1919061379b565b9050600060076000848152602001908152602001600020549050818114611ec6576000600660008673ffffffffffffffffffffffffffffffffffffffff1673ffffffffffffffffffffffffffffffffffffffff168152602001908152602001600020600084815260200190815260200160002054905080600660008773ffffffffffffffffffffffffffffffffffffffff1673ffffffffffffffffffffffffffffffffffffffff168152602001908152602001600020600084815260200190815260200160002081905550816007600083815260200190815260200160002081905550505b6007600084815260200190815260200160002060009055600660008573ffffffffffffffffffffffffffffffffffffffff1673ffffffffffffffffffffffffffffffffffffffff16815260200190815260200160002060008381526020019081526020016000206000905550505050565b60006001600880549050611f4b919061379b565b9050600060096000848152602001908152602001600020549050600060088381548110611f7b57611f7a613041565b5b906000526020600020015490508060088381548110611f9d57611f9c613041565b5b906000526020600020018190555081600960008381526020019081526020016000208190555060096000858152602001908152602001600020600090556008805480611fec57611feb6137cf565b5b6001900381819060005260206000200160009055905550505050565b600061201383610b07565b905081600660008573ffffffffffffffffffffffffffffffffffffffff1673ffffffffffffffffffffffffffffffffffffffff168152602001908152602001600020600083815260200190815260200160002081905550806007600084815260200190815260200160002081905550505050565b600073ffffffffffffffffffffffffffffffffffffffff168273ffffffffffffffffffffffffffffffffffffffff16036120f6576040517f08c379a00000000000000000000000000000000000000000000000000000000081526004016120ed9061384a565b60405180910390fd5b6120ff816118a1565b1561213f576040517f08c379a0000000000000000000000000000000000000000000000000000000008152600401612136906138b6565b60405180910390fd5b61214d6000838360016118e2565b612156816118a1565b15612196576040517f08c379a000000000000000000000000000000000000000000000000000000000815260040161218d906138b6565b60405180910390fd5b6001600360008473ffffffffffffffffffffffffffffffffffffffff1673ffffffffffffffffffffffffffffffffffffffff16815260200190815260200160002060008282540192505081905550816002600083815260200190815260200160002060006101000a81548173ffffffffffffffffffffffffffffffffffffffff021916908373ffffffffffffffffffffffffffffffffffffffff160217905550808273ffffffffffffffffffffffffffffffffffffffff16600073ffffffffffffffffffffffffffffffffffffffff167fddf252ad1be2c89b69c2b068fc378daa952ba7f163c4a11628f55a4df523b3ef60405160405180910390a46122a0600083836001611a40565b5050565b6000808273ffffffffffffffffffffffffffffffffffffffff163b119050919050565b6000604051905090565b600080fd5b600080fd5b60007fffffffff0000000000000000000000000000000000000000000000000000000082169050919050565b612310816122db565b811461231b57600080fd5b50565b60008135905061232d81612307565b92915050565b600060208284031215612349576123486122d1565b5b60006123578482850161231e565b91505092915050565b60008115159050919050565b61237581612360565b82525050565b6000602082019050612390600083018461236c565b92915050565b600081519050919050565b600082825260208201905092915050565b60005b838110156123d05780820151818401526020810190506123b5565b60008484015250505050565b6000601f19601f8301169050919050565b60006123f882612396565b61240281856123a1565b93506124128185602086016123b2565b61241b816123dc565b840191505092915050565b6000602082019050818103600083015261244081846123ed565b905092915050565b6000819050919050565b61245b81612448565b811461246657600080fd5b50565b60008135905061247881612452565b92915050565b600060208284031215612494576124936122d1565b5b60006124a284828501612469565b91505092915050565b600073ffffffffffffffffffffffffffffffffffffffff82169050919050565b60006124d6826124ab565b9050919050565b6124e6816124cb565b82525050565b600060208201905061250160008301846124dd565b92915050565b612510816124cb565b811461251b57600080fd5b50565b60008135905061252d81612507565b92915050565b6000806040838503121561254a576125496122d1565b5b60006125588582860161251e565b925050602061256985828601612469565b9150509250929050565b61257c81612448565b82525050565b60006020820190506125976000830184612573565b92915050565b6000806000606084860312156125b6576125b56122d1565b5b60006125c48682870161251e565b93505060206125d58682870161251e565b92505060406125e686828701612469565b9150509250925092565b600080fd5b600080fd5b7f4e487b7100000000000000000000000000000000000000000000000000000000600052604160045260246000fd5b612632826123dc565b810181811067ffffffffffffffff82111715612651576126506125fa565b5b80604052505050565b60006126646122c7565b90506126708282612629565b919050565b600067ffffffffffffffff8211156126905761268f6125fa565b5b612699826123dc565b9050602081019050919050565b82818337600083830152505050565b60006126c86126c384612675565b61265a565b9050828152602081018484840111156126e4576126e36125f5565b5b6126ef8482856126a6565b509392505050565b600082601f83011261270c5761270b6125f0565b5b813561271c8482602086016126b5565b91505092915050565b60006020828403121561273b5761273a6122d1565b5b600082013567ffffffffffffffff811115612759576127586122d6565b5b612765848285016126f7565b91505092915050565b600060208284031215612784576127836122d1565b5b60006127928482850161251e565b91505092915050565b6127a481612360565b81146127af57600080fd5b50565b6000813590506127c18161279b565b92915050565b600080604083850312156127de576127dd6122d1565b5b60006127ec8582860161251e565b92505060206127fd858286016127b2565b9150509250929050565b600067ffffffffffffffff821115612822576128216125fa565b5b61282b826123dc565b9050602081019050919050565b600061284b61284684612807565b61265a565b905082815260208101848484011115612867576128666125f5565b5b6128728482856126a6565b509392505050565b600082601f83011261288f5761288e6125f0565b5b813561289f848260208601612838565b91505092915050565b600080600080608085870312156128c2576128c16122d1565b5b60006128d08782880161251e565b94505060206128e18782880161251e565b93505060406128f287828801612469565b925050606085013567ffffffffffffffff811115612913576129126122d6565b5b61291f8782880161287a565b91505092959194509250565b60008060408385031215612942576129416122d1565b5b60006129508582860161251e565b92505060206129618582860161251e565b9150509250929050565b7f4e487b7100000000000000000000000000000000000000000000000000000000600052602260045260246000fd5b600060028204905060018216806129b257607f821691505b6020821081036129c5576129c461296b565b5b50919050565b7f4552433732313a20617070726f76616c20746f2063757272656e74206f776e6560008201527f7200000000000000000000000000000000000000000000000000000000000000602082015250565b6000612a276021836123a1565b9150612a32826129cb565b604082019050919050565b60006020820190508181036000830152612a5681612a1a565b9050919050565b7f4552433732313a20617070726f76652063616c6c6572206973206e6f7420746f60008201527f6b656e206f776e6572206f7220617070726f76656420666f7220616c6c000000602082015250565b6000612ab9603d836123a1565b9150612ac482612a5d565b604082019050919050565b60006020820190508181036000830152612ae881612aac565b9050919050565b7f4552433732313a2063616c6c6572206973206e6f7420746f6b656e206f776e6560008201527f72206f7220617070726f76656400000000000000000000000000000000000000602082015250565b6000612b4b602d836123a1565b9150612b5682612aef565b604082019050919050565b60006020820190508181036000830152612b7a81612b3e565b9050919050565b7f455243373231456e756d657261626c653a206f776e657220696e646578206f7560008201527f74206f6620626f756e6473000000000000000000000000000000000000000000602082015250565b6000612bdd602b836123a1565b9150612be882612b81565b604082019050919050565b60006020820190508181036000830152612c0c81612bd0565b9050919050565b60008190508160005260206000209050919050565b60006020601f8301049050919050565b600082821b905092915050565b600060088302612c757fffffffffffffffffffffffffffffffffffffffffffffffffffffffffffffffff82612c38565b612c7f8683612c38565b95508019841693508086168417925050509392505050565b6000819050919050565b6000612cbc612cb7612cb284612448565b612c97565b612448565b9050919050565b6000819050919050565b612cd683612ca1565b612cea612ce282612cc3565b848454612c45565b825550505050565b600090565b612cff612cf2565b612d0a818484612ccd565b505050565b5b81811015612d2e57612d23600082612cf7565b600181019050612d10565b5050565b601f821115612d7357612d4481612c13565b612d4d84612c28565b81016020851015612d5c578190505b612d70612d6885612c28565b830182612d0f565b50505b505050565b600082821c905092915050565b6000612d9660001984600802612d78565b1980831691505092915050565b6000612daf8383612d85565b9150826002028217905092915050565b612dc882612396565b67ffffffffffffffff811115612de157612de06125fa565b5b612deb825461299a565b612df6828285612d32565b600060209050601f831160018114612e295760008415612e17578287015190505b612e218582612da3565b865550612e89565b601f198416612e3786612c13565b60005b82811015612e5f57848901518255600182019150602085019450602081019050612e3a565b86831015612e7c5784890151612e78601f891682612d85565b8355505b6001600288020188555050505b505050505050565b600081905092915050565b50565b6000612eac600083612e91565b9150612eb782612e9c565b600082019050919050565b6000612ecd82612e9f565b9150819050919050565b7f596f752072656163686564206d617820737570706c7900000000000000000000600082015250565b6000612f0d6016836123a1565b9150612f1882612ed7565b602082019050919050565b60006020820190508181036000830152612f3c81612f00565b9050919050565b7f506c65617365206164642076616c696420616d6f756e74206f66204554480000600082015250565b6000612f79601e836123a1565b9150612f8482612f43565b602082019050919050565b60006020820190508181036000830152612fa881612f6c565b9050919050565b7f455243373231456e756d657261626c653a20676c6f62616c20696e646578206f60008201527f7574206f6620626f756e64730000000000000000000000000000000000000000602082015250565b600061300b602c836123a1565b915061301682612faf565b604082019050919050565b6000602082019050818103600083015261303a81612ffe565b9050919050565b7f4e487b7100000000000000000000000000000000000000000000000000000000600052603260045260246000fd5b7f4552433732313a20696e76616c696420746f6b656e2049440000000000000000600082015250565b60006130a66018836123a1565b91506130b182613070565b602082019050919050565b600060208201905081810360008301526130d581613099565b9050919050565b7f4552433732313a2061646472657373207a65726f206973206e6f74206120766160008201527f6c6964206f776e65720000000000000000000000000000000000000000000000602082015250565b60006131386029836123a1565b9150613143826130dc565b604082019050919050565b600060208201905081810360008301526131678161312b565b9050919050565b600081905092915050565b600081546131868161299a565b613190818661316e565b945060018216600081146131ab57600181146131c0576131f3565b60ff19831686528115158202860193506131f3565b6131c985612c13565b60005b838110156131eb578154818901526001820191506020810190506131cc565b838801955050505b50505092915050565b600061320782612396565b613211818561316e565b93506132218185602086016123b2565b80840191505092915050565b7f2e6a736f6e000000000000000000000000000000000000000000000000000000600082015250565b600061326360058361316e565b915061326e8261322d565b600582019050919050565b60006132858285613179565b915061329182846131fc565b915061329c82613256565b91508190509392505050565b7f4f776e61626c653a206e6577206f776e657220697320746865207a65726f206160008201527f6464726573730000000000000000000000000000000000000000000000000000602082015250565b60006133046026836123a1565b915061330f826132a8565b604082019050919050565b60006020820190508181036000830152613333816132f7565b9050919050565b7f4552433732313a207472616e736665722066726f6d20696e636f72726563742060008201527f6f776e6572000000000000000000000000000000000000000000000000000000602082015250565b60006133966025836123a1565b91506133a18261333a565b604082019050919050565b600060208201905081810360008301526133c581613389565b9050919050565b7f4552433732313a207472616e7366657220746f20746865207a65726f2061646460008201527f7265737300000000000000000000000000000000000000000000000000000000602082015250565b60006134286024836123a1565b9150613433826133cc565b604082019050919050565b600060208201905081810360008301526134578161341b565b9050919050565b7f4f776e61626c653a2063616c6c6572206973206e6f7420746865206f776e6572600082015250565b60006134946020836123a1565b915061349f8261345e565b602082019050919050565b600060208201905081810360008301526134c381613487565b9050919050565b7f4552433732313a20617070726f766520746f2063616c6c657200000000000000600082015250565b60006135006019836123a1565b915061350b826134ca565b602082019050919050565b6000602082019050818103600083015261352f816134f3565b9050919050565b7f4552433732313a207472616e7366657220746f206e6f6e20455243373231526560008201527f63656976657220696d706c656d656e7465720000000000000000000000000000602082015250565b60006135926032836123a1565b915061359d82613536565b604082019050919050565b600060208201905081810360008301526135c181613585565b9050919050565b7f4e487b7100000000000000000000000000000000000000000000000000000000600052601260045260246000fd5b7f455243373231456e756d657261626c653a20636f6e736563757469766520747260008201527f616e7366657273206e6f7420737570706f727465640000000000000000000000602082015250565b60006136536035836123a1565b915061365e826135f7565b604082019050919050565b6000602082019050818103600083015261368281613646565b9050919050565b600081519050919050565b600082825260208201905092915050565b60006136b082613689565b6136ba8185613694565b93506136ca8185602086016123b2565b6136d3816123dc565b840191505092915050565b60006080820190506136f360008301876124dd565b61370060208301866124dd565b61370d6040830185612573565b818103606083015261371f81846136a5565b905095945050505050565b60008151905061373981612307565b92915050565b600060208284031215613755576137546122d1565b5b60006137638482850161372a565b91505092915050565b7f4e487b7100000000000000000000000000000000000000000000000000000000600052601160045260246000fd5b60006137a682612448565b91506137b183612448565b92508282039050818111156137c9576137c861376c565b5b92915050565b7f4e487b7100000000000000000000000000000000000000000000000000000000600052603160045260246000fd5b7f4552433732313a206d696e7420746f20746865207a65726f2061646472657373600082015250565b60006138346020836123a1565b915061383f826137fe565b602082019050919050565b6000602082019050818103600083015261386381613827565b9050919050565b7f4552433732313a20746f6b656e20616c7265616479206d696e74656400000000600082015250565b60006138a0601c836123a1565b91506138ab8261386a565b602082019050919050565b600060208201905081810360008301526138cf81613893565b905091905056fea26469706673582212208afe7e8c22c851a13108b9abe581e9593d28ea6a1cd4010c49e79b2c20ab234864736f6c63430008120033697066733a2f2f516d64524e784e656d4e6e61586b474d7663746d75553958546550547231354773753733616b486e6e384c3553352f",
  "linkReferences": {},
  "deployedLinkReferences": {}
}